:020000040800F2
:10000000680700203502000813180008951700083B
:1000100011180008ED050008CD19000800000000C7
:100020000000000000000000000000001718000899
:10003000A1060008000000001518000819180008A3
:100040004F0200084F0200084F0200084F0200084C
:100050004F0200084F0200084F0200084F0200083C
:100060004F0200084F0200084F0200084F0200082C
:100070004F0200084F0200084F0200084F0200081C
:100080004F0200084F020008B904000800000000F9
:100090000000000000000000000000004F02000807
:1000A0004F0200084F0200084F0200084F020008EC
:1000B0004F0200084F0200084F0200084F020008DC
:1000C0004F0200084F0200084F0200084F020008CC
:1000D0004F0200084F0200084F0200080000000015
:1000E0004F0200084F0200084F0200080000000005
:1000F0000000000000000000000000004F020008A7
:10010000000000004F0200084F0200084F020008E4
:1001100000000000000000000000000000000000DF
:10012000F10500084F0200084F0200084F020008C6
:100130004F02000800000000000000000000000066
:100140000000000000000000000000004F02000856
:100150004F0200084F0200084F0200084F0200083B
:100160004F0200084F0200080000000000000000DD
:10017000000000000000000000000000000000007F
:10018000000000004F020008000000000000000016
:100190004F02000800F002F800F03CF80AA090E8D6
:1001A000000C82448344AAF10107DA4501D100F032
:1001B00031F8AFF2090EBAE80F0013F0010F18BFC3
:1001C000FB1A43F001031847181900003819000002
:1001D000103A24BF78C878C1FAD8520724BF30C873
:1001E00030C144BF04680C60704700000023002445
:1001F00000250026103A28BF78C1FBD8520728BF37
:1002000030C148BF0B6070471FB501F053FC1FBDE4
:1002100010B510BD00F0CFF81146FFF7F5FF01F063
:10022000E7FB00F0EDF803B4FFF7F2FF03BC00F0CA
:10023000F5F800000948804709480047FEE7FEE757
:10024000FEE7FEE7FEE7FEE7FEE7FEE7FEE7FEE786
:1002500004480549054A064B70470000B1180008DC
:10026000950100086801002068070020680300204D
:100270006803002053EA020C00F069802DE9F04B7E
:100280004FF00006002B1FBFB3FA83F503FA05F405
:1002900024FA05F65E4012BF1643B2FA82F502FA5E
:1002A00005F4C5F120051EBF22FA05FC44EA0C0442
:1002B000203556EA044C4FEA144418BF641C4FF032
:1002C00000084FF00009904271EB030C39D300296C
:1002D00019BFB1FA81F701FA07F6B0FA80F700FA10
:1002E00007F6C7F120071EBF20FA07FC46EA0C06F6
:1002F0002037B6FBF4FCA7EB0507103F07F01F0BF8
:10030000CBF120060CFA0BFB2CFA06F644BFB346E1
:100310000026202FA4BF5E464FF0000B5BEA060CC0
:1003200008BF4FF0010B19EB0B09ABFB027C48EB4C
:100330000608C01B06FB02CC0BFB03CC71EB0C01C7
:10034000C1E70B46024641464846BDE8F08B13B56F
:100350004FF000004FF00001AFF30080BDE81C40FB
:1003600070474FF0000200B5134694469646203978
:1003700022BFA0E80C50A0E80C50B1F12001BFF45E
:10038000F7AF090728BFA0E80C5048BF0CC05DF8C4
:1003900004EB890028BF40F8042B08BF704748BF12
:1003A00020F8022B11F0804F18BF00F8012B704786
:1003B000704770477047754600F02CF8AE46050050
:1003C0006946534620F00700854618B020B5FFF770
:1003D0003FFFBDE820404FF000064FF000074FF010
:1003E00000084FF0000B21F00701AC46ACE8C00953
:1003F000ACE8C009ACE8C009ACE8C0098D4670475C
:1004000010B50446AFF300802046BDE81040FFF76A
:100410000ABF00000048704704010020014918206D
:10042000ABBEFEE726000200704710B50146806BA8
:10043000026C12F0500F05D0026CD20626D500F0E7
:10044000DBF910BD016C41F40071016401688A6838
:1004500012F0405F17D1027EAAB9CA6A12F4700F77
:1004600002D08A6852050ED44A6822F020024A60FF
:10047000016C21F480710164016CC90403D4016C26
:1004800041F00101016400F0B5F910BD806BC26C50
:10049000BDE810400846104710B5806B402101644C
:1004A000416C41F00401416400F0A6F910BD10B5A3
:1004B000806B00F0A0F910BD014800F09EB900006B
:1004C00014000020464910B54A6822F440324A60C0
:1004D0004A6843681A434A6001684A6822F4807295
:1004E0004A6001684A68036942EA03224A60016877
:1004F0004A6822F040724A6001684A6883681A4379
:100500004A6001688A6822F400628A6001688A6829
:10051000C3681A438A60816A6FF07062D1420168D1
:100520008A6822F070628A6001688A680CD0836AE7
:100530001A438A6001688A6822F040528A60016822
:100540008A68C36A1A4301E022F040528A60016857
:100550008A6822F002028A6001688A68037E42EAA1
:1005600043028A6090F82010002901684A680FD081
:1005700042F400624A6001684A6822F460424A60BC
:1005800001684A68174C436A04EB43331A4301E09D
:1005900022F400624A600168CA6A22F47002CA62E8
:1005A0000168CA6A838B104C04EB03531A43CA6276
:1005B00001688A6822F400728A6001688A6890F88B
:1005C000303042EA43228A6001688A6822F48062FD
:1005D0008A6001688A68406942EA8020886010BDAC
:1005E0000023014000E0FFFF0000F0FFFEE70000F5
:1005F000014800F0ABBA0000A400002001681823F5
:10060000CAB2103AB2FBF3F2054B6FF30901032AA9
:100610009B5CC36500D9091D8165084670470000D1
:10062000BE1A000810B5014600208B698A6A4FF097
:10063000C07453B1B3F5005F15D072B1012A0CD06C
:10064000022A0AD0032A09D104E01AB1012A06D0ED
:10065000022A03D1C96AC90100D5012010BDC96AA7
:10066000A142FAD010BD002AF7D0012AF2D0022A06
:10067000F3D0032AF3D010BD30B50468256825F403
:1006800080252560046863608368402B036803D07D
:1006900099600068C26030BD9A600068C16030BD7A
:1006A000704772B6FEE7704778B50024009490F862
:1006B0003C20012A19D0012280F83C200A68072337
:1006C0000568092A13D9EE680A3A02EB4202934000
:1006D0009E43EE600B788A680A3B03EB43039A4023
:1006E0000368DD682A43DA6010E0022078BD2E69D5
:1006F00002EB420293409E432E610B788A6803EB23
:1007000043039A4003681D692A431A614A681F23FC
:10071000072A13D205686E6B521E02EB82029340C9
:100720009E436E630B790A885B1E92B203EB8303D0
:100730009A4003685D6B2A435A6327E005680D2AD7
:1007400012D22E6BD21F02EB820293409E432E6385
:100750000B790A88DB1F92B203EB83039A4003688C
:100760001D6B2A431A6311E0EE6A0D3A02EB820216
:1007700093409E43EE620B790A880D3B92B203EBE5
:1007800083039A400368DD6A2A43DA62164B0568E0
:10079000144A9D4206D10D68122D03D1556845F4C7
:1007A0008005556005689D4218D10B68102B01D05B
:1007B000112B13D1536843F40003536009681029C7
:1007C0000CD10A490A4A0968B1FBF2F101EB810137
:1007D000490000E0491E00910029FBD180F83C400F
:1007E000002078BD002301400020014010000020BF
:1007F00040420F0070477047704770B5044600686C
:100800000668456816F0020F05F020012AD049B3AA
:10081000216CC90603D4216C41F400712164816804
:1008200011F0405F17D1217EA9B9C16A11F4700F90
:1008300002D0816849050ED4416821F02001416051
:10084000206C20F480702064206CC00403D4206CE1
:1008500040F0010020642046FFF7CCFF21686FF0D4
:100860001200086016F0040F05F0800132D089B341
:10087000206CC00603D4206C40F400502064206833
:10088000816811F4401F1ED1816B11F4401F02D00A
:100890008168490517D44168490514D4816811F06D
:1008A000405F10D1217E71B9416821F08001416023
:1008B000206C20F480502064206CC00503D4206C90
:1008C00040F0010020642046FFF7EDFE21686FF044
:1008D0000C00086016F0010F05F040010FD071B157
:1008E00020680068C0070AD0206C40F48030206483
:1008F000204600F043F821686FF00100086016F010
:10090000200F05F080610ED000290CD0606C40F003
:100910000200606420686FF0200505602046FFF744
:100920006BFF2068056070BD70B504004FF00005D6
:1009300003D0206C002610B107E0012070BD2046D6
:1009400000F01EF8666484F83C60206CC00610D489
:10095000206C20F4885040F0020020642046FFF70D
:10096000B1FD6664206C20F0020040F001002064BC
:1009700000E0012584F83C60284670BD7047000007
:1009800070B586B0064614216846FFF7EAFC214997
:10099000306888423BD120480025016841F48071CD
:1009A0000160006800F4807005901B4814380168ED
:1009B00041F0010101600068694600F00100059006
:1009C00003200090CDE90105144800F031FA154CE0
:1009D0001348C4E900050015A560C4E903504000B0
:1009E00060618000A0614011C4E90705204665628E
:1009F00000F07CF908B1FFF754FEB4630022012136
:100A00001220A66300F078FB122000F067FB06B00E
:100A100070BD000000200140443802400000024048
:100A200010640240A4000020F8B5044600200E46E1
:100A3000009094F83C10012907D0012184F83C1063
:100A400021688B68DB0702D011E00220F8BD8B68BB
:100A500043F001038B603649364B0968B1FBF3F173
:100A600001EB410100E0491E00910029FBD1216802
:100A70008B68DB0503D58B6823F480738B6021685A
:100A80008B68DB0749D0236C40F20165AB4343F42C
:100A9000807323644968490505D5216C21F4005110
:100AA00041F480512164216CC90404D5616C21F0AA
:100AB0000601616400E0606484F83C00A16B1F489B
:100AC0001D4DC863A16B1E480864A16B1D48C86416
:100AD00021686FF0220008602068416841F0806161
:100AE00041602068816841F480718160216813460B
:100AF00032464C31A06B00F063F96868C00620688C
:100B000002D01149884210D1816811F0405F0CD1A8
:100B1000816841F08041816007E0206C40F0100066
:100B20002064606C40F0010060640020F8BD0000AB
:100B30001000002040420F00002301402B04000859
:100B4000AF04000899040008002001402DE9F84393
:100B500004464FF00009CDF8009063484FF4165159
:100B6000A56D0068B0FBF1F72E6894F85C100820C2
:100B700000FA01F131420FD021680A6852070BD503
:100B80000A6822F004020A6094F85C108840A860A9
:100B9000606D40F00100606594F85C104FF0010852
:100BA00008FA01F0304208D021684969090604D5E5
:100BB000A860606D40F00200606594F85C1004204D
:100BC0008840304208D021680968890704D5A860A8
:100BD000606D40F00400606594F85C10102088405F
:100BE000304218D021680968090714D5A860206828
:100BF0000168490304D50068000308D5A16C07E02B
:100C00000168C90503D4016821F008010160216C65
:100C100009B12046884794F85C1020208840304273
:100C200031D021680968C9062DD5A86094F835002F
:100C300005282068016806D0490347D500680003ED
:100C40001DD4616C1CE021F016010160206841692F
:100C500021F080014161206C08B9A06C20B12068AE
:100C6000016821F00801016094F85C103F20884081
:100C7000A86084F8358084F83490216D1FE0E16B22
:100C800009B120468847606D00282BD0606DC007F1
:100C900014D0052084F835002068016821F0010196
:100CA00001600098401C0090B84203D8206800689A
:100CB000C007F6D184F8358084F83490E16C0029BF
:100CC00010D001B02046BDE8F04308470168C905CF
:100CD000D5D4016821F01001016084F8358084F8D2
:100CE0003490CCE7BDE8F883100000202DE9F041F6
:100CF000044600F093F906465CB1022084F8350002
:100D0000002584F834502068016821F00101016059
:100D10000DE00120BDE8F08100F080F9801B05287E
:100D200005D920206065032084F83500F2E72068AB
:100D30000068C007F0D12268116820480140D4E95A
:100D400001031843D4E90336334318436369184356
:100D5000A3691843E3691843236A18430843616A87
:100D6000042903D1D4E90B13194308431060206808
:100D70004069666A20F0070130460E4301270428C7
:100D80000CD1A06A0643E06A40B12046FFF74AFC56
:100D900020B14020606584F83570BAE7206846616C
:100DA0002046FFF72BFC94F85C203F2191408160A6
:100DB000656584F835700020ACE700003F8010F0D6
:100DC0002DE9F0410446866D90F834000025012895
:100DD0000DD0012084F8340094F835700020012FE4
:100DE00007D084F8340002252846BDE8F0810220AF
:100DF000FBE7022784F8357060652046FFF73CFC6E
:100E000094F85C103F208840B0602068016841F091
:100E100016010160206C20B12068016841F00801D2
:100E200001602068016841F001010160DCE7000019
:100E30002DE9F84FDFF8B8A10022012403254FF077
:100E40000F090AF1040BAAF1040E00BF0B6804FAA3
:100E500002F63340B34273D10F7907F00307012F35
:100E600001D0022F16D187684FEA420805FA08FC24
:100E700027EA0C07D1F80CC00CFA08FC4CEA070C66
:100E8000C0F808C04768B7430E79C6F3001696400D
:100E90003E4346600E79F643B6070DD0C76856004C
:100EA00005FA06FC27EA0C07D1F808C00CFA06FC84
:100EB0004CEA070CC0F80CC00E7906F00306022EAF
:100EC00010D1D60800EB8608D8F8206057074FEA03
:100ED000D76C09FA0CF7BE430F6907FA0CF73743D2
:100EE000C8F8207006684FEA420C05FA0CF7BE43BA
:100EF0000F7907F0030707FA0CF7374307604E68CE
:100F000016F4403F6DD03B4E376847F4804737605A
:100F1000366822F0030706F480460096364E07EB4B
:100F2000060CDCF8086897073F0F09FA07F826EA6D
:100F30000806DFF8C880404503D14FF000081EE0E6
:100F40004FE0DFF8BC80404502D14FF0010816E0C9
:100F5000DFF8B080404502D14FF002080FE0DFF823
:100F6000A880404502D14FF0030808E0DFF89C80DC
:100F7000404502D14FF0040801E04FF0070808FA9D
:100F800007F848EA0608CCF80888DAF800605746FF
:100F9000D1F804C09E435FEACC2C00D51E433E60CE
:100FA000DBF800605F46D1F804C09E435FEA8C2CFA
:100FB00000D51E433E60DEF800607746D1F804C0DD
:100FC0009E435FEA8C3C00D51E433E60084F083FBD
:100FD0003E68D1F804C09E435FEACC3C00D51E4376
:100FE0003E60521C102AFFF431AFBDE8F88F0000BC
:100FF000083C0140443802400030014000000240FB
:101000000004024000080240000C024000100240B0
:101010000AB1816170470904FBE70000014880685C
:1010200070470000040000200248816802781144E3
:1010300081607047040000200B4810B5016841F43E
:1010400000710160016841F480610160016841F450
:1010500080710160032000F06FF80F2000F006F8A7
:1010600000F024F8002010BD003C024070B50D4D8A
:1010700004464FF47A712878B1FBF0F00A49096808
:10108000B1FBF0F000F00CFB48B9102C07D20022A5
:101090002146501E00F030F800206C6070BD012029
:1010A00070BD000004000020100000200A4808B5B0
:1010B000016841F480410160006800F480400090C4
:1010C0000548001F016841F080510160006800F090
:1010D0008050009008BD000044380240002809DB21
:1010E00000F01F02012191404009800000F1E02042
:1010F000C0F8001170470000F0B40E4B1B680C469E
:10110000C3F30223C3F10705042D00D90425191DDB
:10111000072901D2002300E0DB1E012606FA05F1B3
:10112000491E214099409E40761E16403143F0BC36
:1011300000F04DBC0CED00E0064900F00702086825
:101140004FF6FF03184040EA0220034A10430860AC
:10115000704700000CED00E00000FA052DE9F047B3
:101160000E46050065D0DFF81481D8F80000F7B20C
:1011700000F00700B04207D288F80070D8F80000ED
:1011800000F00700B04254D128683D4C810712D5C9
:10119000400703D5206840F4E0502060287800071D
:1011A00003D5206840F4604020602068A96820F0E2
:1011B000F000084320602878C0072DD030496868C7
:1011C0000839012812D0022813D0032811D0096849
:1011D000890700292DDA216821F0030101432160EC
:1011E000FFF71CFF814641F2883A0EE00968890347
:1011F000EFE709688901ECE7FFF710FFA0EB0901B1
:10120000514502D90320BDE8F0872068696800F0E5
:101210000C00B0EB810FEFD1D8F80010404601F080
:101220000701B14207D90770006800F00700B0421B
:1012300001D00120E7E72878400705D52068E96854
:1012400020F4E050084320602878000706D5206885
:10125000296920F4604040EAC100206000F038F8BD
:101260002168084AC1F30311515CC840064908606F
:1012700006480068FFF7FAFE0020C4E7003C024081
:1012800008380240C61A000810000020080000209C
:101290000448054900680968044AC1F38221515C89
:1012A000C84070471000002008380240D61A0008D5
:1012B0000448054900680968044AC1F34231515C99
:1012C000C84070471000002008380240D61A0008B5
:1012D000154810B5006810F00C02144813D01449DA
:1012E000042A0FD0082A0ED10F4C241F226823682D
:1012F00002F03F025B0207D52068C0F38810A0FB14
:10130000010106E0084610BD2168C1F38811A1FB68
:1013100000010023FEF7AEFF2168C1F30141491C23
:101320004900B0FBF1F010BD083802400024F40081
:1013300040787D012DE9F84F04006ED02078DFF869
:101340004C93C007A9F104054AD009F104000168D3
:10135000C1F38101012908D00068C0F3810002288F
:101360000AD1D9F80000400206D52868800337D595
:1013700060680028E1D033E06068B0F5803F10D0AD
:10138000B0F5A02F286810D020F48030286028689D
:1013900020F4802028606068A8B1FFF73FFE064671
:1013A0000DE0286840F48030F4E740F480202860A5
:1013B000F7E700BFFFF732FE801B642873D8286868
:1013C0008003F7D50CE0FFF729FE064605E000BFD5
:1013D000FFF724FE801B6428F0D828688003F7D428
:1013E0002078DFF8AC8280074FF0000A3ED5A7488E
:1013F000001D016811F00C0F08D00068C0F38100D7
:1014000002280BD1D9F80000400207D428688007D1
:1014100016D5E068012800D112E033E1E068B8B1E8
:101420000120C8F80000FFF7F9FD064605E000BFFF
:10143000FFF7F4FD801B0228C0D828688007F7D585
:101440002868216920F0F80040EAC10028600DE01A
:10145000C8F800A0FFF7E2FD064604E0FFF7DEFD56
:10146000801B02281FD828688007F7D4207800073F
:1014700022D5864F87486169703771B101210160BB
:10148000FFF7CCFD064604E0FFF7C8FD801B0228ED
:1014900009D838688007F7D50EE0C0F800A0FFF73C
:1014A000BDFD064605E082E0FFF7B8FD801B02287F
:1014B0007DD838688007F7D42078400768D5DFF8F2
:1014C000CCB100270BF13C0BDBF80000C0000BD4C3
:1014D000DBF8001041F08051CBF80010DBF8000081
:1014E000012700F0805000906B4E3068C00510D48A
:1014F000306840F480703060FFF790FD009005E0A8
:10150000FFF78CFD0099401A022850D83068C005BA
:10151000F6D55E4EA0686C3601280FD005283068DD
:1015200010D020F001003060306820F004003060FE
:10153000A068B8B1FFF772FD00900FE0306840F08E
:101540000100F4E740F004003060F7E7FFF766FDC4
:101550000099411A41F28830814266D8306880078C
:10156000F4D50EE0FFF75AFD009007E0FFF756FDB7
:101570000099411A41F28830814256D8306880077C
:10158000F4D42FB1DBF8001021F08051CBF800101B
:10159000A069C8B33D49091D0968C1F38101022949
:1015A0004AD00228504607D0C8F8600000E03CE06E
:1015B000FFF734FD04463BE04746C8F86000FFF7FC
:1015C0002DFD064605E000BFFFF728FD801B022821
:1015D0002BD828688001F7D4D4E907010843A16A11
:1015E0002E4A490802EB0141626A41EA821108432E
:1015F00094F82C1040EA0161C9F800100120386607
:10160000FFF70CFD044606E03EE000BFFFF706FDD5
:10161000001B022809D828688001F7D534E000BFF4
:10162000FFF7FCFC001B022802D90320BDE8F88F5D
:1016300028688001F4D427E00128F7D0D9F8000009
:10164000E26900F4800191421CD1226A00F03F015E
:10165000914217D147F6C071626A0140B1EB821F17
:1016600010D1A26A4FF0FF3300F4403103EB520275
:10167000B1EB024F06D194F82C1000F07060B0EB83
:10168000016F01D00120D1E70020CFE704380240EC
:1016900000004742800E4742007000400000FFFFFC
:1016A00010B5401EB0F1807F01D3012010BD4FF076
:1016B000E02460610F21601700F089F90020A0612B
:1016C00007202061002010BD70B5040004D094F8FC
:1016D0004100002510B106E0012070BD84F84050A3
:1016E000204600F023F8242084F841002068C168D7
:1016F00021F40051C160204600F0E2F82068016941
:1017000021F4904101612068416921F02A01416181
:101710002068C16841F40051C1606564202084F8EC
:10172000410084F842006563002070BD10B586B0AA
:10173000044614216846FEF714FE134920688842C7
:1017400020D112480021026842F400320260006891
:1017500000F4003005900D481038026842F0010294
:101760000260006800F0010005900C20009002204B
:10177000CDE9010103200390072004906946044845
:10178000FFF756FB06B010BD004400404038024051
:1017900000000240FEE700007FB500241A480094D4
:1017A0000194029417490394016001254FF480319C
:1017B0000561C0E90114047680F820401349C0E9AE
:1017C0000A140226C661C46080F830404561FFF704
:1017D000ABF808B172B6FEE707200094CDE90150DE
:1017E00069460948FEF760FF08B172B6FEE7CDE929
:1017F000005669460448FEF757FF002801D072B62C
:10180000FEE77FBD00200140140000200100000F12
:10181000FEE7FEE770477047FFF706BC30B593B0B0
:1018200030216846FEF79DFD14210CA8FEF799FDB6
:101830001D480024016841F080510160006800F0FB
:10184000805011901948016821F4404141F4004151
:1018500001600068022500F44040119001200390CF
:1018600010200490009506950820CDE907405420EB
:10187000CDE9090504200B906846FFF75BFD08B130
:1018800072B6FEE70F20CDE90C054FF48050CDE98C
:101890000E4002210CA81094FFF760FC002801D034
:1018A00072B6FEE713B030BD403802400070004011
:1018B0000248016841F470010160704788ED00E062
:1018C00070B5044600680169E26821F44051114393
:1018D00001612169A068E269084361691143084315
:1018E0002168CA6849F20C639A430243CA602068BF
:1018F0004169A26921F44071114341613149206875
:10190000884202D03049884202D1FFF7D1FC01E081
:10191000FFF7BEFCE2690023192164253226B2F5E7
:10192000004F626828D0A0FB0101930F9200FEF7E0
:10193000A1FC0146B0FBF5F06FF01802504301EB3B
:10194000800006EB0010B0FBF5F000F0F002B1FBF8
:10195000F5F002EB0012B1FBF5F06FF018035843FD
:1019600001EB800006EB0010B0FBF5F000F00F007B
:1019700021681044886070BDA0FB010192185B4192
:10198000FEF778FC0146B0FBF5F00201B1FBF5F083
:101990006FF01803584301EB800006EBC000B0FB6A
:1019A000F5F000F0F80002EB4002B1FBF5F058430F
:1019B00001EB800006EBC000B0FBF5F000F0070083
:1019C000D6E700000010014000140140FEE70907BF
:1019D000090E002804DB00F1E02080F800147047B5
:1019E00000F00F0000F1E02080F8141D70470000A7
:1019F00086B0FFF721FBFFF711FF14216846FEF7C1
:101A0000B0FC274D0024286840F0010028602868B9
:101A1000244E00F001000590224620213046FFF7B9
:101A2000F7FA202000900120CDE9010469463046F4
:101A30000394FFF7FDF94020CDE9000469463046E4
:101A40000294FFF7F5F9286840F4800028602868C0
:101A5000002200F48000009011463820FFF74CFB74
:101A60003820FFF73BFBFFF797FE10480E49016057
:101A70004FF4E131C0E901140C21C460C0E9044114
:101A80008461C461FFF720FE08B172B6FEE7084822
:101A90000222018805484838FEF7C6FFFEE700002D
:101AA0003038024000000240004400405C0000204A
:101AB000000000204FF04070E1EE100A7047000671
:101AC00010160006101600000000000000000102C1
:101AD00003040607080900000000010203040000D7
:101AE000001B00080000002014000000D0010008C6
:101AF000141B00081400002054070000EC0100082B
:101B000000000000010000001000000000000000C4
:041B10000024F400B9
:040000050800019559
:00000001FF
